{
  "contractName": "MyDefiProject",
  "abi": [
    {
      "inputs": [
        {
          "internalType": "address",
          "name": "daiAddress",
          "type": "address"
        }
      ],
      "stateMutability": "nonpayable",
      "type": "constructor"
    },
    {
      "anonymous": false,
      "inputs": [
        {
          "indexed": false,
          "internalType": "address",
          "name": "sender",
          "type": "address"
        },
        {
          "indexed": false,
          "internalType": "uint256",
          "name": "amount",
          "type": "uint256"
        }
      ],
      "name": "LogDeposit",
      "type": "event"
    },
    {
      "anonymous": false,
      "inputs": [
        {
          "indexed": false,
          "internalType": "uint256",
          "name": "payout",
          "type": "uint256"
        }
      ],
      "name": "Payout",
      "type": "event"
    },
    {
      "inputs": [
        {
          "internalType": "address",
          "name": "",
          "type": "address"
        }
      ],
      "name": "balances",
      "outputs": [
        {
          "internalType": "uint256",
          "name": "",
          "type": "uint256"
        }
      ],
      "stateMutability": "view",
      "type": "function",
      "constant": true
    },
    {
      "inputs": [
        {
          "internalType": "uint256",
          "name": "",
          "type": "uint256"
        }
      ],
      "name": "people",
      "outputs": [
        {
          "internalType": "address",
          "name": "",
          "type": "address"
        }
      ],
      "stateMutability": "view",
      "type": "function",
      "constant": true
    },
    {
      "inputs": [
        {
          "internalType": "uint256",
          "name": "",
          "type": "uint256"
        }
      ],
      "name": "users",
      "outputs": [
        {
          "internalType": "address",
          "name": "",
          "type": "address"
        }
      ],
      "stateMutability": "view",
      "type": "function",
      "constant": true
    },
    {
      "inputs": [],
      "name": "getBalance",
      "outputs": [
        {
          "internalType": "uint256",
          "name": "balance",
          "type": "uint256"
        }
      ],
      "stateMutability": "view",
      "type": "function",
      "constant": true
    },
    {
      "inputs": [
        {
          "internalType": "uint256",
          "name": "newBalance",
          "type": "uint256"
        }
      ],
      "name": "updateBalance",
      "outputs": [],
      "stateMutability": "nonpayable",
      "type": "function"
    },
    {
      "inputs": [
        {
          "internalType": "address",
          "name": "myAddress",
          "type": "address"
        }
      ],
      "name": "returnBalance",
      "outputs": [
        {
          "internalType": "uint256",
          "name": "",
          "type": "uint256"
        }
      ],
      "stateMutability": "view",
      "type": "function",
      "constant": true
    },
    {
      "inputs": [],
      "name": "deposit",
      "outputs": [
        {
          "internalType": "string",
          "name": "",
          "type": "string"
        }
      ],
      "stateMutability": "payable",
      "type": "function",
      "payable": true
    },
    {
      "inputs": [
        {
          "internalType": "address payable",
          "name": "addr",
          "type": "address"
        },
        {
          "internalType": "uint256",
          "name": "amount",
          "type": "uint256"
        }
      ],
      "name": "sendFunds",
      "outputs": [],
      "stateMutability": "nonpayable",
      "type": "function"
    },
    {
      "inputs": [
        {
          "internalType": "uint256",
          "name": "length",
          "type": "uint256"
        }
      ],
      "name": "random",
      "outputs": [
        {
          "internalType": "uint256",
          "name": "",
          "type": "uint256"
        }
      ],
      "stateMutability": "view",
      "type": "function",
      "constant": true
    },
    {
      "inputs": [
        {
          "internalType": "address",
          "name": "recipient",
          "type": "address"
        },
        {
          "internalType": "uint256",
          "name": "amount",
          "type": "uint256"
        }
      ],
      "name": "meh",
      "outputs": [],
      "stateMutability": "nonpayable",
      "type": "function"
    },
    {
      "inputs": [
        {
          "internalType": "address[]",
          "name": "_members",
          "type": "address[]"
        }
      ],
      "name": "pickWinner",
      "outputs": [
        {
          "internalType": "uint256",
          "name": "",
          "type": "uint256"
        }
      ],
      "stateMutability": "payable",
      "type": "function",
      "payable": true
    },
    {
      "inputs": [],
      "name": "getAllUsers",
      "outputs": [
        {
          "internalType": "address[]",
          "name": "",
          "type": "address[]"
        }
      ],
      "stateMutability": "view",
      "type": "function",
      "constant": true
    },
    {
      "inputs": [],
      "name": "getRecipientAddresses",
      "outputs": [
        {
          "internalType": "address[]",
          "name": "",
          "type": "address[]"
        }
      ],
      "stateMutability": "view",
      "type": "function",
      "constant": true
    }
  ],
  "bytecode": "0x608060405234801561001057600080fd5b50604051620011ca380380620011ca8339818101604052810190610034919061008f565b806000806101000a81548173ffffffffffffffffffffffffffffffffffffffff021916908373ffffffffffffffffffffffffffffffffffffffff16021790555050610101565b600081519050610089816100ea565b92915050565b6000602082840312156100a157600080fd5b60006100af8482850161007a565b91505092915050565b60006100c3826100ca565b9050919050565b600073ffffffffffffffffffffffffffffffffffffffff82169050919050565b6100f3816100b8565b81146100fe57600080fd5b50565b6110b980620001116000396000f3fe6080604052600436106100c25760003560e01c80637d47a9751161007f578063ba7b37d411610059578063ba7b37d4146102a7578063d0e30db0146102d0578063db6508b9146102ee578063e2842d7914610317576100c2565b80637d47a975146101fd5780639e7a13ad1461022d578063b863bd371461026a576100c2565b806312065fe0146100c7578063264b2b8e146100f257806327e235e31461012f578063365b98b21461016c5780633b9d3608146101a95780636f64234e146101d4575b600080fd5b3480156100d357600080fd5b506100dc610342565b6040516100e99190610d24565b60405180910390f35b3480156100fe57600080fd5b5061011960048036038101906101149190610a21565b61034a565b6040516101269190610d24565b60405180910390f35b34801561013b57600080fd5b5061015660048036038101906101519190610a21565b610393565b6040516101639190610d24565b60405180910390f35b34801561017857600080fd5b50610193600480360381019061018e9190610b2c565b6103ab565b6040516101a09190610c9c565b60405180910390f35b3480156101b557600080fd5b506101be6103ea565b6040516101cb9190610ce0565b60405180910390f35b3480156101e057600080fd5b506101fb60048036038101906101f69190610a4a565b610478565b005b61021760048036038101906102129190610ac2565b6104d0565b6040516102249190610d24565b60405180910390f35b34801561023957600080fd5b50610254600480360381019061024f9190610b2c565b6105c1565b6040516102619190610c9c565b60405180910390f35b34801561027657600080fd5b50610291600480360381019061028c9190610b2c565b610600565b60405161029e9190610d24565b60405180910390f35b3480156102b357600080fd5b506102ce60048036038101906102c99190610b2c565b61066b565b005b6102d8610715565b6040516102e59190610d02565b60405180910390f35b3480156102fa57600080fd5b5061031560048036038101906103109190610a86565b610794565b005b34801561032357600080fd5b5061032c6108a9565b6040516103399190610ce0565b60405180910390f35b600047905090565b6000600460008373ffffffffffffffffffffffffffffffffffffffff1673ffffffffffffffffffffffffffffffffffffffff168152602001908152602001600020549050919050565b60046020528060005260406000206000915090505481565b600281815481106103bb57600080fd5b906000526020600020016000915054906101000a900473ffffffffffffffffffffffffffffffffffffffff1681565b6060600180548060200260200160405190810160405280929190818152602001828054801561046e57602002820191906000526020600020905b8160009054906101000a900473ffffffffffffffffffffffffffffffffffffffff1673ffffffffffffffffffffffffffffffffffffffff1681526020019060010190808311610424575b5050505050905090565b8047101561048557600080fd5b8173ffffffffffffffffffffffffffffffffffffffff166108fc829081150290604051600060405180830381858888f193505050501580156104cb573d6000803e3d6000fd5b505050565b60007f22427047e1a674a9aff59700a2c8d00ea96e017ddf9236690bdedf1f21f28d9d8260028151811061052d577f4e487b7100000000000000000000000000000000000000000000000000000000600052603260045260246000fd5b602002602001015173ffffffffffffffffffffffffffffffffffffffff16316040516105599190610d24565b60405180910390a18160028151811061059b577f4e487b7100000000000000000000000000000000000000000000000000000000600052603260045260246000fd5b602002602001015173ffffffffffffffffffffffffffffffffffffffff16319050919050565b600181815481106105d157600080fd5b906000526020600020016000915054906101000a900473ffffffffffffffffffffffffffffffffffffffff1681565b60008060009050808061061290610ed4565b91505060008342338460405160200161062d93929190610c5f565b6040516020818303038152906040528051906020012060001c6106509190610f4b565b905060018161065f9190610df1565b90508092505050919050565b80600460003373ffffffffffffffffffffffffffffffffffffffff1673ffffffffffffffffffffffffffffffffffffffff168152602001908152602001600020819055506002339080600181540180825580915050600190039060005260206000200160009091909190916101000a81548173ffffffffffffffffffffffffffffffffffffffff021916908373ffffffffffffffffffffffffffffffffffffffff16021790555050565b60606107203461066b565b7f1b851e1031ef35a238e6c67d0c7991162390df915f70eaf9098dbf0b175a61983334604051610751929190610cb7565b60405180910390a16040518060400160405280600c81526020017f6465706f73697420646f6e650000000000000000000000000000000000000000815250905090565b60008054906101000a900473ffffffffffffffffffffffffffffffffffffffff1673ffffffffffffffffffffffffffffffffffffffff1663a9059cbb83836040518363ffffffff1660e01b81526004016107ef929190610cb7565b602060405180830381600087803b15801561080957600080fd5b505af115801561081d573d6000803e3d6000fd5b505050506040513d601f19601f820116820180604052508101906108419190610b03565b506001829080600181540180825580915050600190039060005260206000200160009091909190916101000a81548173ffffffffffffffffffffffffffffffffffffffff021916908373ffffffffffffffffffffffffffffffffffffffff1602179055505050565b6060600280548060200260200160405190810160405280929190818152602001828054801561092d57602002820191906000526020600020905b8160009054906101000a900473ffffffffffffffffffffffffffffffffffffffff1673ffffffffffffffffffffffffffffffffffffffff16815260200190600101908083116108e3575b5050505050905090565b600061094a61094584610d70565b610d3f565b9050808382526020820190508285602086028201111561096957600080fd5b60005b85811015610999578161097f88826109a3565b84526020840193506020830192505060018101905061096c565b5050509392505050565b6000813590506109b281611027565b92915050565b6000813590506109c78161103e565b92915050565b600082601f8301126109de57600080fd5b81356109ee848260208601610937565b91505092915050565b600081519050610a0681611055565b92915050565b600081359050610a1b8161106c565b92915050565b600060208284031215610a3357600080fd5b6000610a41848285016109a3565b91505092915050565b60008060408385031215610a5d57600080fd5b6000610a6b858286016109b8565b9250506020610a7c85828601610a0c565b9150509250929050565b60008060408385031215610a9957600080fd5b6000610aa7858286016109a3565b9250506020610ab885828601610a0c565b9150509250929050565b600060208284031215610ad457600080fd5b600082013567ffffffffffffffff811115610aee57600080fd5b610afa848285016109cd565b91505092915050565b600060208284031215610b1557600080fd5b6000610b23848285016109f7565b91505092915050565b600060208284031215610b3e57600080fd5b6000610b4c84828501610a0c565b91505092915050565b6000610b618383610b6d565b60208301905092915050565b610b7681610e47565b82525050565b610b8581610e47565b82525050565b610b9c610b9782610e47565b610f1d565b82525050565b6000610bad82610dac565b610bb78185610dcf565b9350610bc283610d9c565b8060005b83811015610bf3578151610bda8882610b55565b9750610be583610dc2565b925050600181019050610bc6565b5085935050505092915050565b6000610c0b82610db7565b610c158185610de0565b9350610c25818560208601610ea1565b610c2e81611009565b840191505092915050565b610c4281610e97565b82525050565b610c59610c5482610e97565b610f41565b82525050565b6000610c6b8286610c48565b602082019150610c7b8285610b8b565b601482019150610c8b8284610c48565b602082019150819050949350505050565b6000602082019050610cb16000830184610b7c565b92915050565b6000604082019050610ccc6000830185610b7c565b610cd96020830184610c39565b9392505050565b60006020820190508181036000830152610cfa8184610ba2565b905092915050565b60006020820190508181036000830152610d1c8184610c00565b905092915050565b6000602082019050610d396000830184610c39565b92915050565b6000604051905081810181811067ffffffffffffffff82111715610d6657610d65610fda565b5b8060405250919050565b600067ffffffffffffffff821115610d8b57610d8a610fda565b5b602082029050602081019050919050565b6000819050602082019050919050565b600081519050919050565b600081519050919050565b6000602082019050919050565b600082825260208201905092915050565b600082825260208201905092915050565b6000610dfc82610e97565b9150610e0783610e97565b9250827fffffffffffffffffffffffffffffffffffffffffffffffffffffffffffffffff03821115610e3c57610e3b610f7c565b5b828201905092915050565b6000610e5282610e77565b9050919050565b6000610e6482610e77565b9050919050565b60008115159050919050565b600073ffffffffffffffffffffffffffffffffffffffff82169050919050565b6000819050919050565b60005b83811015610ebf578082015181840152602081019050610ea4565b83811115610ece576000848401525b50505050565b6000610edf82610e97565b91507fffffffffffffffffffffffffffffffffffffffffffffffffffffffffffffffff821415610f1257610f11610f7c565b5b600182019050919050565b6000610f2882610f2f565b9050919050565b6000610f3a8261101a565b9050919050565b6000819050919050565b6000610f5682610e97565b9150610f6183610e97565b925082610f7157610f70610fab565b5b828206905092915050565b7f4e487b7100000000000000000000000000000000000000000000000000000000600052601160045260246000fd5b7f4e487b7100000000000000000000000000000000000000000000000000000000600052601260045260246000fd5b7f4e487b7100000000000000000000000000000000000000000000000000000000600052604160045260246000fd5b6000601f19601f8301169050919050565b60008160601b9050919050565b61103081610e47565b811461103b57600080fd5b50565b61104781610e59565b811461105257600080fd5b50565b61105e81610e6b565b811461106957600080fd5b50565b61107581610e97565b811461108057600080fd5b5056fea2646970667358221220002f7ad6e287f489ac0a2f155e9546b8f5655dcb64f8a13ebcc32fb5465df67b64736f6c63430008000033",
  "immutableReferences": {},
  "source": "pragma solidity ^0.8.0;\n\nimport \"@openzeppelin/contracts/token/ERC20/IERC20.sol\";\n\ncontract MyDefiProject  { \n    IERC20 dai;\n    event Payout(uint256 payout);\n    event LogDeposit(address sender, uint amount);\n    address[] public people;\n    address[] public users;\n    uint addressRegistryCount; \n    mapping(address => uint) public balances;\n    constructor (address daiAddress) public  {\n\tdai = IERC20 (daiAddress);  \n\t\n    }\n\n   /**\n     * This is NOT needed, but for learning purposes, a convenience ... \n     * Anyone can check the balance at any address at any time, without this assistance.\n     */\nfunction getBalance() public view returns(uint balance) {\n        return address(this).balance;\n    }\n\nfunction updateBalance(uint newBalance) public {\n    balances[msg.sender] = newBalance;\n    users.push(msg.sender);\n    //addressRegistryCount++;   \n     //balances[0xf16c73133577A5a06e64aC7fFa95d769e72315Ae] = newBalance;\n   }\n \nfunction returnBalance (address myAddress) public view returns (uint) {\n      return balances[myAddress];\n   }\n\nfunction deposit() external payable returns(string memory) {\n        //require(msg.value == 1);\n        updateBalance(msg.value);\n        emit LogDeposit(msg.sender, msg.value);\n        return \"deposit done\";\n    }\n\n\nfunction sendFunds(address payable addr, uint amount) public {\n    require (address(this).balance >= amount);\n    addr.transfer(amount);\n}\n\n\nfunction random(uint length) public view returns (uint) {\n    uint nonce = 0;\n    nonce++;\n    uint randomnumber = uint(keccak256(abi.encodePacked(block.timestamp, msg.sender, nonce))) % length;\n    randomnumber = randomnumber + 1;\n    return randomnumber;\n}\n\nfunction meh(address recipient, uint amount) external {\n \tdai.transfer(recipient, amount);\n\tpeople.push(recipient);\n}\n\n// pick winner by the largest amount of tokens\n\nfunction pickWinner(address[] memory _members) public payable returns(uint) {\n \n  // if(_members[2].getBalance == 120\n     emit Payout(_members[2].balance);\n     return _members[2].balance;\n}\n// return array of addresses in mapping\nfunction getAllUsers() public view returns (address[] memory){\n    // return an array of users that deposited ether\n    return users;\n}\n\nfunction getRecipientAddresses() public view returns(address[] memory) {\n\treturn people;\n}\n\n\n}\n",
  "sourcePath": "/Users/jack/defi/contracts/MyDefiProject.sol",
  "compiler": {
    "name": "solc",
    "version": "0.8.0+commit.c7dfd78e.Emscripten.clang"
  },
  "schemaVersion": "3.4.3",
  "updatedAt": "2021-09-25T00:44:14.597Z",
  "networkType": "ethereum",
  "devdoc": {
    "kind": "dev",
    "methods": {},
    "version": 1
  },
  "userdoc": {
    "kind": "user",
    "methods": {
      "getBalance()": {
        "notice": "This is NOT needed, but for learning purposes, a convenience ...  Anyone can check the balance at any address at any time, without this assistance."
      }
    },
    "version": 1
  }
}